:020000040000FA
:0400000008EF18F0FD
:1008000000566F6C746167656D313A3D252E326616
:10081000205600566F6C746167656D323A3D252E27
:100820003266205600696E66006E616E0000000E32
:100830000001DE6F49C0E1F04AC0E2F04BC0E3F0D6
:100840004CC0E4F0E4BF29EF04F027EF04F03DEFE3
:1008500004F0010EDE6FE1C001F0E2C002F0E3C07F
:1008600003F0E4C004F0A0EC17F001C0E1F002C016
:10087000E2F003C0E3F004C0E4F0000E0001E06F1A
:10088000000EDF6F68C0CEF069C0CFF0DE51D8B483
:100890004CEF04F04EEF04F062EF04F0DE51D8A408
:1008A00054EF04F056EF04F05CEF04F0000EC46F58
:1008B0002B0EC36F60EF04F0000EC46F2D0EC36FDC
:1008C000C3C0DEF0E1C001F0E2C002F0E3C003F01B
:1008D000E4C004F083EC13F001040210D8A473EF19
:1008E00004F075EF04F0A8EF04F00001DE51D8B475
:1008F0007CEF04F07EEF04F087EF04F0DEC06DF0D3
:10090000CE07D8A0CF07000EE06F010EDF6F6D0E8F
:10091000DF25016E000EE021026E250E036E080E2B
:10092000046E80EC17F00001FD0ECE27FF0ECF23E2
:1009300047C017F048C018F06D0E196E000E1A6E01
:10094000CEC01BF0CFC01CF0F5EC15F025EF09F080
:10095000E1C001F0E2C002F0E3C003F0E4C004F043
:1009600083EC13F001500210D8A4B9EF04F0BBEFF0
:1009700004F0EEEF04F00001DE51D8B4C2EF04F051
:10098000C4EF04F0CDEF04F0DEC06DF0CE07D8A0C8
:10099000CF07000EE06F010EDF6F6D0EDF25016ED9
:1009A000000EE021026E290E036E080E046E80EC2C
:1009B00017F00001FD0ECE27FF0ECF2347C017F022
:1009C00048C018F06D0E196E000E1A6ECEC01BF0E6
:1009D000CFC01CF0F5EC15F025EF09F0000E00017A
:1009E000E56F000EE66F800EE76F3F0EE86F000EBA
:1009F000CD6F000ECC6FE1C001F0E2C002F0E3C0A9
:100A000003F0E4C004F0000E056E000E066E000E4A
:100A1000076E000E086ECAEC14F0D8B012EF05F0A5
:100A200014EF05F0F3EF05F021EF05F0D0C0E5F08D
:100A3000D1C0E6F0D2C0E7F0D3C0E8F00001CC4B63
:100A4000CD2BE5C001F0E6C002F0E7C003F0E8C03E
:100A500004F0000E056E000E066E200E076E410EAD
:100A6000086E86EC0BF001C0D0F002C0D1F003C0DC
:100A7000D2F004C0D3F00001D051E15D016ED1513C
:100A8000E259026ED251E359036ED351E459046E18
:100A90006DEC16F004BE58EF05F004500310021080
:100AA00009E1020E015CD8A058EF05F05AEF05F0FD
:100AB00016EF05F0D0C01AF0D1C01BF0D2C01CF068
:100AC000D3C01DF0E1C01EF0E2C01FF0E3C020F073
:100AD000E4C021F001EC13F0D8A071EF05F073EF42
:100AE00005F016EF05F00001E551E15D016EE651FC
:100AF000E259026EE751E359036EE851E459046E7E
:100B00006DEC16F004BE92EF05F0045003100210D5
:100B100007E1020E015CD8B090EF05F092EF05F00E
:100B2000DAEF05F0E5C0E1F0E6C0E2F0E7C0E3F09F
:100B3000E8C0E4F0F3EF05F0E5C01AF0E6C01BF002
:100B4000E7C01CF0E8C01DF0000E1E6E000E1F6E08
:100B5000200E206E410E216E9BEC0DF01AC0E5F0C8
:100B60001BC0E6F01CC0E7F01DC0E8F00001CC0798
:100B7000D8A0CD07E551E15D016EE651E259026E64
:100B8000E751E359036EE851E459046E6DEC16F039
:100B900004BED8EF05F004500310021007E1020E66
:100BA000015CD8B0D6EF05F0D8EF05F0DAEF05F02C
:100BB00092EF05F0E1C01AF0E2C01BF0E3C01CF0B8
:100BC000E4C01DF0E5C01EF0E6C01FF0E7C020F055
:100BD000E8C021F001EC13F0D8A0F1EF05F0F3EF3D
:100BE00005F09CEF05F04DC0C6F0C6C0C7F000018F
:100BF0006BBFFDEF05F0FFEF05F005EF06F06AC0F3
:100C0000BFF06BC0C0F009EF06F0000EC06F060E1B
:100C1000BF6FBFC0CAF0C0C0CBF0CA4BCB2B660EB3
:100C2000C719D8A416EF06F018EF06F038EF06F053
:100C3000CDBF1FEF06F01DEF06F02BEF06F0000E04
:100C4000E56F000EE66F800EE76F3F0EE86F000E57
:100C5000CD6F000ECC6F670EC619D8B432EF06F018
:100C600034EF06F038EF06F0CC51CA27CD51CB2334
:100C7000000ED56F000ED46FE1C0D6F0E2C0D7F001
:100C8000E3C0D8F0E4C0D9F0E5C0D0F0E6C0D1F0C0
:100C9000E7C0D2F0E8C0D3F0C9EF06F0D6C01AF032
:100CA000D7C01BF0D8C01CF0D9C01DF0E5C01EF0A5
:100CB000E6C01FF0E7C020F0E8C021F09BEC0DF08B
:100CC0001AC033F01BC034F01CC035F01DC036F024
:100CD0009BEC10F033C0DAF034C0DBF035C0DCF050
:100CE00036C0DDF0DAC001F0DBC002F0DCC003F09A
:100CF000DDC004F07EEC12F001C0C8F002C0C9F003
:100D0000D6C01AF0D7C01BF0D8C01CF0D9C01DF057
:100D1000DAC005F0DBC006F0DCC007F0DDC008F08B
:100D2000E5C001F0E6C002F0E7C003F0E8C004F05F
:100D300086EC0BF001C01EF002C01FF003C020F0D3
:100D400004C021F01AEC17F01AC0D6F01BC0D7F07F
:100D50001CC0D8F01DC0D9F0E5C01AF0E6C01BF0E9
:100D6000E7C01CF0E8C01DF0000E1E6E000E1F6EE6
:100D7000200E206E410E216E9BEC0DF01AC0E5F0A6
:100D80001BC0E6F01CC0E7F01DC0E8F00001D44B2A
:100D9000D52BCA51D45DD551800A4E6ECB51800AF5
:100DA0004E58D8A0D6EF06F0D8EF06F04EEF06F07A
:100DB000E5C001F0E6C002F0E7C003F0E8C004F0CF
:100DC000000E056E000E066EA00E076E400E086E39
:100DD00086EC0BF001C0DAF002C0DBF003C0DCF0FF
:100DE00004C0DDF0D6C01AF0D7C01BF0D8C01CF08C
:100DF000D9C01DF0DAC01EF0DBC01FF0DCC020F04F
:100E0000DDC021F001EC13F0D8B009EF07F00BEFD3
:100E100007F016EF07F0000E0001DA6F000EDB6F2F
:100E2000000EDC6F000EDD6F3FEF07F0D6C001F063
:100E3000D7C002F0D8C003F0D9C004F0DAC005F082
:100E4000DBC006F0DCC007F0DDC008F0CAEC14F02F
:100E5000D8A02DEF07F02FEF07F03FEF07F00001CC
:100E6000C8B135EF07F037EF07F03FEF07F0000E9E
:100E7000DA6F000EDB6F000EDC6F000EDD6FE1C07D
:100E800001F0E2C002F0E3C003F0E4C004F0DAC015
:100E900005F0DBC006F0DCC007F0DDC008F026EC92
:100EA00009F001C0D6F002C0D7F003C0D8F004C0EA
:100EB000D9F0D6C01AF0D7C01BF0D8C01CF0D9C0EA
:100EC0001DF0000E056E000E066E200E076E410E20
:100ED000086ED0C001F0D1C002F0D2C003F0D3C080
:100EE00004F086EC0BF001C01EF002C01FF003C03E
:100EF00020F004C021F001EC13F0D8A082EF07F03D
:100F000084EF07F0ADEF07F00001CC4BCD2BD0C044
:100F100001F0D1C002F0D2C003F0D3C004F0000E43
:100F2000056E000E066E200E076E410E086E86ECF2
:100F30000BF001C0D0F002C0D1F003C0D2F004C069
:100F4000D3F0660E0001C719D8A4A9EF07F0ABEFE4
:100F500007F0ADEF07F0CA4BCB2BD0C0E5F0D1C006
:100F6000E6F0D2C0E7F0D3C0E8F0CCC0BDF0CDC011
:100F7000BEF0000E0001C56F000EC26F000EC16F03
:100F8000000ED56F000ED46FABEF08F0D6C01AF08C
:100F9000D7C01BF0D8C01CF0D9C01DF0E5C01EF0B2
:100FA000E6C01FF0E7C020F0E8C021F09BEC0DF098
:100FB0001AC033F01BC034F01CC035F01DC036F031
:100FC0009BEC10F033C0DAF034C0DBF035C0DCF05D
:100FD00036C0DDF0DAC001F0DBC002F0DCC003F0A7
:100FE000DDC004F07EEC12F002BE02EF08F0025009
:100FF00007E10A0E015CD8B000EF08F002EF08F03C
:1010000012EF08F0DAC001F0DBC002F0DCC003F040
:10101000DDC004F07EEC12F001C0C8F002C0C9F0DF
:1010200017EF08F0000E0001C96F090EC86F00012C
:10103000C551D8A41EEF08F020EF08F048EF08F0E3
:10104000BEBF27EF08F025EF08F048EF08F06D0E5F
:10105000DF25D96E000EE021DA6E2E0EDF6EDF4B3B
:10106000E02BCE07D8A0CF07010EC56F48EF08F0E0
:101070006D0EDF25D96E000EE021DA6E300EDF6EC8
:10108000DF4BE02BCE07D8A0CF07C107D8A0C207FF
:10109000C151C211D8A44FEF08F051EF08F038EF5A
:1010A00008F06D0EDF25D96E000EE021DA6EC85112
:1010B000300FDF6EDF4BE02BCE07D8A0CF07D6C0B6
:1010C0001AF0D7C01BF0D8C01CF0D9C01DF0DAC090
:1010D00005F0DBC006F0DCC007F0DDC008F0E5C0BD
:1010E00001F0E6C002F0E7C003F0E8C004F086ECCF
:1010F0000BF001C01EF002C01FF003C020F004C0BE
:1011000021F01AEC17F01AC0D6F01BC0D7F01CC0A3
:10111000D8F01DC0D9F0E5C01AF0E6C01BF0E7C05A
:101120001CF0E8C01DF0000E1E6E000E1F6E200E9B
:10113000206E410E216E9BEC0DF01AC0E5F01BC035
:10114000E6F01CC0E7F01DC0E8F00001BD07D8A024
:10115000BE07D44BD52BCA51D45DD551800A4E6EF3
:10116000CB51800A4E58D8B0B8EF08F0BAEF08F06B
:10117000C8EF08F0E0BFC6EF08F0E05109E14B0E00
:10118000DF5DD8A0C6EF08F0C8EF08F0C6EF07F0A3
:10119000000ED56F4F0ED46F6D0ED425D96E000E94
:1011A000D521DA6EDF6A6D0E4E6E000E4F6EDF5186
:1011B0004E5EE0514F5AD4514E24016ED5514F200E
:1011C000026E6D0E036E000E046EDFC005F0E0C00F
:1011D00006F0F2EC16F00001DF51D45DDF6FE05154
:1011E000D559E06FDE51D8A4F8EF08F0FBEF08F016
:1011F000010EFCEF08F0000ED46FD56BDE51D8B4B1
:1012000004EF09F006EF09F011EF09F0DF07D8A0AD
:10121000E0076D0EDF25D96E000EE021DA6EDEC02C
:10122000DFFFD451CE5FD551CF5B47C017F048C028
:1012300018F06D0EDF25196E000EE0211A6ECEC07B
:101240001BF0CFC01CF0F5EC15F012000450800B21
:101250000D6E045004240F6E03AE31EF09F033EF2E
:1012600009F034EF09F00F800F50D8B43AEF09F0CD
:101270003CEF09F051EF09F00F28D8A442EF09F034
:1012800044EF09F04CEF09F0000E016E000E026E03
:10129000000E036E000E046E038E000E046E59EFF6
:1012A00009F0000E016E000E026E000E036E000EBD
:1012B000046E0850800B0E6E0D500E18D8B463EFFC
:1012C00009F065EF09F066EF09F00D8C085008246D
:1012D0000E6E07AE6EEF09F070EF09F071EF09F0D6
:1012E0000E800E50D8B477EF09F079EF09F08EEF49
:1012F00009F00E28D8A47FEF09F081EF09F089EFFB
:1013000009F0000E056E000E066E000E076E000E50
:10131000086E078E000E086E96EF09F0000E056E3F
:10132000000E066E000E076E000E086E0F500E5C6B
:10133000D8B09DEF09F09FEF09F0C6EF09F00DACB2
:10134000A4EF09F0A6EF09F0A8EF09F0800E0D1A3E
:101350000FC010F00EC00FF010C00EF001C010F062
:1013600005C001F010C005F002C010F006C002F088
:1013700010C006F003C010F007C003F010C007F063
:1013800004C010F008C004F010C008F0000E106E89
:101390000F500EC009F00A6A095E000E0A5A0ABE12
:1013A000DBEF09F00A5009E11A0E095CD8A0DBEF67
:1013B00009F0DDEF09F014EF0AF0015002100310FC
:1013C0000410D8A4E6EF09F0E9EF09F0010EEAEF06
:1013D00009F0000E106E000E016E000E026E000E7F
:1013E000036E000E046E0EC00FF01DEF0AF010A089
:1013F000FCEF09F0FEEF09F004EF0AF0D89010308E
:101400000109106E06EF0AF0D890103201A00BEF20
:101410000AF00DEF0AF00EEF0AF0108E04340432D9
:101420000332023201320F2A0E500F5CD8A01BEF9C
:101430000AF01DEF0AF0F7EF09F00DBC22EF0AF0F9
:1014400024EF0AF064EF0AF00F50D8A42AEF0AF054
:101450002CEF0AF036EF0AF0000E016E000E026E5D
:10146000000E036E000E046E85EF0BF00550012692
:1014700006500222075003220850042204A043EF22
:101480000AF045EF0AF0F1EF0AF010A04AEF0AF077
:101490004CEF0AF052EF0AF0D89010300109106EAC
:1014A00054EF0AF0D890103201A059EF0AF05BEF28
:1014B0000AF05CEF0AF0108E043404320332023278
:1014C00001320F2AF1EF0AF00550015C0650025874
:1014D000075003580450800A096E0850800A0958C2
:1014E000D8B075EF0AF077EF0AF0A2EF0AF00150DA
:1014F000055C096E025006580A6E035007580B6EC1
:10150000045008580C6EFF0E0924016EFF0E0A20CD
:10151000026EFF0E0B20036EFF0E0C20046E800E79
:101520000D1A106C1050D8A498EF0AF09AEF0AF038
:10153000AAEF0AF0010E0126000E02220322042265
:10154000AAEF0AF00550015E0650025A0750035AEE
:101550000850045A0150021003100410D8A4B3EF2D
:101560000AF0B5EF0AF0EAEF0AF01050D8A4BBEF8A
:101570000AF0BDEF0AF0EAEF0AF0000E016E000E6D
:10158000026E000E036E000E046E85EF0BF0D89015
:10159000013602360336043610AED1EF0AF0D3EF2F
:1015A0000AF0D4EF0AF0018010A0D9EF0AF0DBEFC7
:1015B0000AF0DFEF0AF0D8801036E1EF0AF0D89099
:1015C00010360F50D8B4E7EF0AF0E9EF0AF0EAEF6F
:1015D0000AF00F0603AEEFEF0AF0F1EF0AF0C7EFE3
:1015E0000AF0000E0E6E10AEF8EF0AF0FAEF0AF0F5
:1015F00012EF0BF010C009F07F0E0916D8B403EFFC
:101600000BF005EF0BF009EF0BF0010E0E6E12EF71
:101610000BF001A00EEF0BF010EF0BF012EF0BF040
:1016200005EF0BF00E50D8B418EF0BF01AEF0BF0DB
:1016300045EF0BF0010E0126000E022203220422C8
:1016400004A025EF0BF027EF0BF045EF0BF001C0E6
:1016500009F002C00AF003C00BF004C00CF00C3417
:101660000C320B320A32093209C001F00AC002F012
:101670000BC003F00CC004F00F28D8B442EF0BF0FD
:1016800044EF0BF045EF0BF00F2A0F28D8B44BEFC7
:101690000BF04DEF0BF055EF0BF00F50D8A453EFBC
:1016A0000BF055EF0BF067EF0BF0000E016E000E24
:1016B000026E000E036E000E046E0F50D8A463EF8E
:1016C0000BF065EF0BF067EF0BF0000E0D6E0FA047
:1016D0006CEF0BF06EEF0BF071EF0BF0038E72EF0F
:1016E0000BF0039ED8900F30046E0DAE7AEF0BF026
:1016F0007CEF0BF07DEF0BF0048E01C001F002C017
:1017000002F003C003F004C004F012000450800B88
:101710000D6E04500424136E03AE91EF0BF093EFA3
:101720000BF094EF0BF013801350D8B49AEF0BF03A
:101730009CEF0BF0AFEF0BF01328D8A4A2EF0BF047
:10174000A4EF0BF0ACEF0BF0000E016E000E026E7A
:10175000000E036E000E046E038EB7EF0BF0000E4A
:10176000016E000E026E000E036E000E046E085035
:10177000800B0D1A08500824126E07AEC2EF0BF052
:10178000C4EF0BF0C5EF0BF012801250D8B4CBEFC2
:101790000BF0CDEF0BF0E0EF0BF01228D8A4D3EF55
:1017A0000BF0D5EF0BF0DDEF0BF0000E056E000E29
:1017B000066E000E076E000E086E078EE8EF0BF047
:1017C000000E056E000E066E000E076E000E086E0F
:1017D0001250D8B4EEEF0BF0F0EF0BF0F8EF0BF087
:1017E0001350D8A4F6EF0BF0F8EF0BF002EF0CF06B
:1017F000000E016E000E026E000E036E000E046EEF
:101800009AEF0DF007500102F3CF18F0F4CF19F062
:1018100018500E6E0F6A106A116A1950146E156A0C
:10182000166A176A06500202F3CF18F0F4CF19F0C7
:1018300018500E26000E0F221022112219501426C5
:10184000000E15221622172205500302F3CF18F0BE
:10185000F4CF19F018500E26000E0F22102211227C
:1018600019501426000E15221622172210C011F04E
:101870000FC010F00EC00FF00E6A05500202F3CF39
:1018800018F0F4CF19F018500E2619500F22000E40
:101890001022000E112206500102F3CF18F0F4CFEF
:1018A00019F018500E2619500F22000E1022000EAB
:1018B000112210C011F00FC010F00EC00FF00E6A10
:1018C00005500102F3CF18F0F4CF19F018500E268E
:1018D00019500F22000E1022000E11220750020292
:1018E000F3CF18F0F4CF19F0185014261950152220
:1018F000000E1622000E172206500302F3CF18F036
:10190000F4CF19F01850142619501522000E162283
:10191000000E172207500302F3CF18F0F4CF19F08E
:101920001850096E19500A6E0B6A0C6A0BC00CF045
:101930000AC00BF009C00AF0096A095014260A50BF
:1019400015220B5016220C5017220EC009F00FC0A2
:101950000AF010C00BF011C00CF0190EB5EF0CF02E
:10196000D8900C320B320A320932E82EB0EF0CF06C
:10197000095014260A5015220B5016220C5017221B
:1019800010C011F00FC010F00EC00FF00E6A125010
:1019900013C009F00A6A0926000E0A22820E0924E1
:1019A000186EFF0E0A20196EEBEF0CF0D89014366B
:1019B00015361636173611AEE0EF0CF0E2EF0CF0EC
:1019C000E3EF0CF01480D8900E360F361036113637
:1019D0001806D8A0190616AEF0EF0CF0F2EF0CF0D6
:1019E000D6EF0CF0000E126E11AEF9EF0CF0FBEF1B
:1019F0000CF01FEF0DF0FF0E0E14096EFF0E0F140A
:101A00000A6EFF0E10140B6E7F0E11140C6E09502F
:101A10000A100B100C10D8B410EF0DF012EF0DF0EF
:101A200016EF0DF0010E126E1FEF0DF014A01BEF5C
:101A30000DF01DEF0DF01FEF0DF012EF0DF0125035
:101A4000D8B425EF0DF027EF0DF04BEF0DF0010EA0
:101A50001426000E15221622172217A032EF0DF0C1
:101A600034EF0DF04BEF0DF014C009F015C00AF083
:101A700016C00BF017C00CF00C340C320B320A32CB
:101A8000093209C014F00AC015F00BC016F00CC0E2
:101A900017F0184A192A19BE56EF0DF0195008E12F
:101AA0001828D8A056EF0DF058EF0DF062EF0DF0AA
:101AB000000E146E000E156E800E166E7F0E176EE1
:101AC00090EF0DF019BE6FEF0DF0195006E11804FC
:101AD000D8B06DEF0DF06FEF0DF07BEF0DF0000E55
:101AE000146E000E156E000E166E000E176E000EB0
:101AF0000D6E90EF0DF018C013F0FF0E1416FF0ED0
:101B000015167F0E1616000E171613A08AEF0DF08D
:101B10008CEF0DF08DEF0DF0168ED8901330176E00
:101B20000D50171214C001F015C002F016C003F0DA
:101B300017C004F012001D50800B2A6E1D501D248A
:101B4000316E1CAEA6EF0DF0A8EF0DF0A9EF0DF071
:101B500031803150D8B4AFEF0DF0B1EF0DF0C6EFDA
:101B60000DF03128D8A4B7EF0DF0B9EF0DF0C1EFAB
:101B70000DF0000E1A6E000E1B6E000E1C6E000E95
:101B80001D6E1C8E000E1D6ECEEF0DF0000E1A6E37
:101B9000000E1B6E000E1C6E000E1D6E2150800B81
:101BA0002A1A21502124326E20AED9EF0DF0DBEF3E
:101BB0000DF0DCEF0DF032803250D8B4E2EF0DF0D2
:101BC000E4EF0DF0F9EF0DF03228D8A4EAEF0DF0B4
:101BD000ECEF0DF0F4EF0DF0000E1E6E000E1F6E18
:101BE000000E206E000E216E208E000E216E01EF81
:101BF0000EF0000E1E6E000E1F6E000E206E000E08
:101C0000216E1E501F1020102110D8A40AEF0EF0D4
:101C10000CEF0EF024EF0EF0000E1A6E000E1B6E8D
:101C2000000E1C6E000E1D6E800E1C127F0E1D120B
:101C30002A501D121AC01AF01BC01BF01CC01CF049
:101C40001DC01DF067EF0FF03150D8A42AEF0EF041
:101C50002CEF0EF036EF0EF0000E1A6E000E1B6E1B
:101C6000000E1C6E000E1D6E67EF0FF0325031C07B
:101C700022F0236A225E000E235A7F0E22242B6E4E
:101C8000000E23202C6E1AC026F01BC027F01CC0AB
:101C900028F01DC029F0000E1A6E000E1B6E000EFB
:101CA0001C6E000E1D6E000E2D6E000E2E6E000EB0
:101CB0002F6E000E306E000E326E97EF0EF0325027
:101CC000D8B465EF0EF067EF0EF07EEF0EF0D8900F
:101CD0002636273628362936D8901A361B361C3633
:101CE0001D3630AE76EF0EF078EF0EF079EF0EF095
:101CF0001A80D8902D362E362F3630361E50265C60
:101D00001F5027582050285821502958D8A08BEF11
:101D10000EF08DEF0EF096EF0EF0308C1E50265E1A
:101D20001F50275A2050285A2150295A322A190E5A
:101D300032649DEF0EF09FEF0EF05FEF0EF0265035
:101D4000271028102910D8B4A8EF0EF0AAEF0EF033
:101D5000C2EF0EF02D80C2EF0EF0D8901A361B366F
:101D60001C361D3630AEB7EF0EF0B9EF0EF0BAEFFD
:101D70000EF01A80D8902D362E362F3630362B06A0
:101D8000D8A02C061CAEC7EF0EF0C9EF0EF0ADEFD9
:101D90000EF0000E326E30AED0EF0EF0D2EF0EF03D
:101DA000F6EF0EF0FF0E2D14226EFF0E2E14236E92
:101DB000FF0E2F14246E7F0E3014256E2250231038
:101DC00024102510D8B4E7EF0EF0E9EF0EF0EDEF98
:101DD0000EF0010E326EF6EF0EF01AA0F2EF0EF0DA
:101DE000F4EF0EF0F6EF0EF0E9EF0EF03250D8B44B
:101DF000FCEF0EF0FEEF0EF022EF0FF0010E1A26B0
:101E0000000E1B221C221D221DA009EF0FF00BEF5C
:101E10000FF022EF0FF01AC022F01BC023F01CC0FD
:101E200024F01DC025F025342532243223322232FD
:101E300022C01AF023C01BF024C01CF025C01DF0E6
:101E40002B4A2C2A2CBE2DEF0FF02C5008E12B280A
:101E5000D8A02DEF0FF02FEF0FF03AEF0FF0000E9C
:101E60002C6E2B68000E1A6E000E1B6E000E1C6E80
:101E7000000E1D6E2CBE47EF0FF02C5006E12B0418
:101E8000D8B045EF0FF047EF0FF055EF0FF0000E11
:101E90002C6E000E2B6E000E1A6E000E1B6E000EC6
:101EA0001C6E000E1D6E000E2A6E2BC031F031A08C
:101EB0005CEF0FF05EEF0FF061EF0FF01C8E62EF42
:101EC0000FF01C9ED89031301D6E18EF0EF01200EE
:101ED00052C0D9FF53C0DAFFDECFF6FFDDCFF7FFE8
:101EE0000800F550250AD8A478EF0FF07AEF0FF02C
:101EF00086EF10F052C0D9FF53C0DAFFDE2A000E81
:101F0000DD22000E0001696F000E686F68C06CF082
:101F10006A696B6952C0D9FF53C0DAFFDECFF6FFA2
:101F2000DDCFF7FF0800F5502E0AD8A49AEF0FF086
:101F30009CEF0FF0B1EF0FF052C0D9FF53C0DAFFA2
:101F4000DE2A000EDD2252C007F053C008F054C054
:101F500009F055C00AF067EC14F007C06AF008C039
:101F60006BF052C0D9FF53C0DAFFDECF5DF0DDCF9A
:101F70005EF05DC0F6FF5EC0F7FF0800F5CF5CF0D5
:101F8000CEEF0FF05D4A5E2AE7EF0FF06C0E5C6E4D
:101F9000E7EF0FF0000E5C6EE7EF0FF05C50566E4F
:101FA000576A5750000AD8B4D8EF0FF0CAEF0FF0B5
:101FB00056504C0AD8B4C2EF0FF02A0AD8B4C6EF74
:101FC0000FF00A0AD8B4C2EF0FF0CAEF0FF05DC0ED
:101FD000F6FF5EC0F7FF0800F550660AD8A4F3EFDD
:101FE0000FF0F5EF0FF07DEF10F02BEF10F054C075
:101FF000D9FF55C0DAFFDFCF56F0040EDE26DFCF63
:1020000057F0000EDD2256C0D9FF57C0DAFFDECFF1
:1020100058F0DECF59F0DECF5AF0DECF5BF040EF64
:1020200010F054C0D9FF55C0DAFFDFCF56F0040ED0
:10203000DE26DFCF57F0000EDD2256C0D9FF57C095
:10204000DAFFDECF58F0DECF59F0DECF5AF0DECF28
:102050005BF040EF10F05C50566E576A5750000A24
:10206000D8B435EF10F040EF10F056504C0AD8B409
:1020700011EF10F0200AD8B4F7EF0FF040EF10F096
:10208000010E5D24566E000E5E20576E52C0D9FFC1
:1020900053C0DAFF56C0DEFF57C0DDFF67EF10F018
:1020A00050C047F051C048F058C049F059C04AF0FC
:1020B0005AC04BF05BC04CF05DC0F6FF5EC0F7FF4E
:1020C0000800F5CF4DF017EC04F09AEF10F05DC06A
:1020D000F6FF5EC0F7FF0800F550566E576A57507E
:1020E000000AD8B476EF10F07DEF10F05650660A73
:1020F000D8B450EF10F07DEF10F052C0D9FF53C0AC
:10210000DAFFDE2A000EDD229AEF10F052C0D9FF6E
:1021100053C0DAFFDECFF6FFDDCFF7FF0800F55042
:10212000076E086A50C009F051C00AF002EC14F0C2
:102130007DEF10F0120060C043F061C044F062C057
:1021400045F063C046F033C043F034C044F035C0BE
:1021500045F036C046F0810E376EFF0E386E43C034
:1021600039F044C03AF045C03BF046C03CF0180E90
:10217000BFEF10F0D8903C323B323A323932E82E81
:10218000BAEF10F039503724416E000E3820426EFD
:1021900042BED4EF10F0425009E1170E415CD8A0C6
:1021A000D4EF10F0D6EF10F0E0EF10F033C033F0C2
:1021B00034C034F035C035F036C036F0A3EF11F03E
:1021C00042BEE5EF10F0E7EF10F057EF11F041C01D
:1021D00037F0FF0E386EFF0E396E7F0E3A6E000E2E
:1021E0003B6E3766F6EF10F0FEEF10F03B343B32FB
:1021F0003A3239323832372EF1EF10F038C03DF034
:1022000039C03EF03AC03FF03BC040F03D5043146F
:10221000376E3E504414386E3F504514396E40506E
:1022200046143A6E3750381039103A10D8A41BEFC4
:1022300011F01DEF11F01FEF11F0D6EF10F043C0B9
:1022400037F044C038F045C039F046C03AF0200EAF
:102250002FEF11F0D8903A32393238323732E82E37
:102260002AEF11F03750381039103A10D8B43BEF3C
:1022700011F03DEF11F045EF11F03D5043263E5077
:1022800044223F504522405046223D1C376E3E1CA2
:10229000386E3F1C396E401C3A6E3750431638502A
:1022A0004416395045163A5046169BEF11F043C07C
:1022B00037F044C038F045C039F046C03AF0200E3F
:1022C00067EF11F0D8903A32393238323732E82E8F
:1022D00062EF11F03750381039103A10D8A473EF6C
:1022E00011F075EF11F07FEF11F0000E436E000E4C
:1022F000446E000E456E000E466E9BEF11F0D890B6
:102300004334376E4434386E4534396E46343A6E51
:102310003750381039103A10D8B491EF11F093EFCC
:1023200011F09BEF11F0000E436E000E446E800E14
:10233000456EBF0E466E43C033F044C034F045C016
:1023400035F046C036F012000E6E0E50D8B4ABEF2A
:1023500011F0ADEF11F0CFEF11F009BEB4EF11F0B5
:10236000B2EF11F0CFEF11F006C00AF007C00BF08A
:1023700008C00CF009C00DF00A1E0B1E0C1E0D1E2D
:102380000A2A000E0B220C220D220AC010F00BC0EC
:1023900011F00CC012F00DC013F0D7EF11F006C011
:1023A00010F007C011F008C012F009C013F0065079
:1023B000071008100910D8A4E0EF11F0E2EF11F0B7
:1023C000ECEF11F0000E066E000E076E000E086EA8
:1023D000000E096E7DEF12F0960E0F6EF6EF11F003
:1023E0000F2AD8901332123211321032000E10140C
:1023F0000A6E000E11140B6E000E12140C6EFE0EFF
:1024000013140D6E0A500B100C100D10D8A40BEF06
:1024100012F00DEF12F0F0EF11F01BEF12F00F2A97
:10242000010E1026000E112212221322D890133210
:10243000123211321032000E10140A6E000E1114F6
:102440000B6E000E12140C6EFF0E13140D6E0A505C
:102450000B100C100D10D8A430EF12F032EF12F068
:102460000FEF12F03AEF12F00F06D8901036113637
:102470001236133612BE3FEF12F041EF12F049EF61
:1024800012F0020E0F6047EF12F049EF12F034EF36
:1024900012F00FB04EEF12F050EF12F051EF12F0B9
:1024A000129ED8900F320FC00AF00B6A0C6A0D6AA8
:1024B0000AC00DF00C6A0B6A0A6A0A5010120B501F
:1024C00011120C5012120D5013120E50D8B46BEFA3
:1024D00012F06DEF12F075EF12F009BE74EF12F00A
:1024E00072EF12F075EF12F0138E10C006F011C0EB
:1024F00007F012C008F013C009F0120003340434CE
:102500000A6E0A50D8A487EF12F089EF12F093EF09
:1025100012F0000E016E000E026E000E036E000E31
:10252000046E00EF13F001C005F002C006F003C016
:1025300007F004C008F0200EA3EF12F0D890083284
:10254000073206320532E82E9EEF12F00550096E72
:10255000038EFF0E0116FF0E0216FF0E0316000E6D
:102560000416960E0A5E0ABEBAEF12F0B8EF12F029
:10257000D0EF12F00A50800A970FD8B0C2EF12F0D5
:10258000C4EF12F0C6EF12F089EF12F0D8900432C7
:102590000332023201320A3EC6EF12F0E8EF12F0C7
:1025A0001F0E0A64D6EF12F0D8EF12F0E0EF12F02F
:1025B00089EF12F0D89001360236033604360A0647
:1025C0000A50D8A4E6EF12F0E8EF12F0DAEF12F0BA
:1025D0000950D8B4EEEF12F0F0EF12F0F8EF12F06D
:1025E000041E031E021E016C000E0222032204229E
:1025F00001C001F002C002F003C003F004C004F007
:102600001200000E1A14226E000E1B14236E800E90
:102610001C14246E7F0E1D14256E225023102410CE
:102620002510D8A416EF13F018EF13F020EF13F0D5
:10263000000E1A6E000E1B6E000E1C6E000E1D6E3C
:10264000000E1E14226E000E1F14236E800E201426
:10265000246E7F0E2114256E225023102410251085
:10266000D8A435EF13F037EF13F03FEF13F0000E5F
:102670001E6E000E1F6E000E206E000E216E1DAE2F
:1026800044EF13F046EF13F04FEF13F01A6C1B1EDC
:10269000D8B01B2A1C1ED8B01C2A800E1D5621AE95
:1026A00054EF13F056EF13F05FEF13F01E6C1F1E84
:1026B000D8B01F2A201ED8B0202A800E2156000E26
:1026C0001A1A000E1B1A000E1C1A800E1D1A000E7C
:1026D0001E1A000E1F1A000E201A800E211A1E50FC
:1026E0001A5C1F501B5820501C5821501D58D8B040
:1026F0007CEF13F07EEF13F081EF13F0D89082EFB0
:1027000013F0D880120064C00BF065C00CF066C0F6
:102710000DF067C00EF001C00BF002C00CF003C05A
:102720000DF004C00EF00BC005F00CC006F00DC09B
:1027300007F00EC008F0180EA3EF13F0D89008327F
:10274000073206320532E82E9EEF13F00550096E6F
:102750000A6A09500A10D8A4B0EF13F0B2EF13F0D0
:10276000D2EF13F0D8900B34056E0C34066E0D3496
:10277000076E0E34086E0550061007100810D8A416
:10278000C4EF13F0C6EF13F0CCEF13F0000E026E9F
:10279000020E016E01EF14F0000E026E030E016EC8
:1027A00001EF14F009280A10D8A4D9EF13F0DBEFD9
:1027B00013F0FDEF13F00BC005F00CC006F00DC0D8
:1027C00007F00EC008F0090ED89005360636073619
:1027D0000836E82EE4EF13F0055006100710081035
:1027E000D8B4F5EF13F0F8EF13F0010EF9EF13F092
:1027F000000E016E026A01EF14F0000E026E040E6C
:10280000016E120009500A10D8B409EF14F00BEF52
:1028100014F014EF14F009500A10D8A412EF14F0B9
:1028200014EF14F019EF14F007501AEC18F066EFDB
:1028300014F020EE0AF00950D9260A50DA22DE50B0
:10284000DE10D8B426EF14F028EF14F043EF14F0A4
:1028500020EE0AF00950D9260A50DA2210EE03F0D1
:102860000950E1260A50E222DE50E65CE650800A7A
:102870000F6EDE50800A0F58D8B041EF14F043EFCE
:1028800014F066EF14F020EE03F00950D9260A5038
:10289000DA22DECF0BF0DDCF0CF009C0D9FF0AC081
:1028A000DAFFDECF0DF0DDCF0EF00B500D24D96E28
:1028B0000C500E20DA6E07C0DFFF20EE03F0095047
:1028C000D9260A50DA22DE2A000EDD221200000E7E
:1028D0000F6E000E0E6E07C0D9FF08C0DAFFDECF04
:1028E000F6FFDDCFF7FF0800F5502A0AD8A47BEFEA
:1028F00014F07DEF14F0B1EF14F007C0D9FF08C059
:10290000DAFFDE2A000EDD2209C0D9FF0AC0DAFF95
:10291000DFCF0BF0020EDE26DFCF0CF0000EDD2243
:102920000BC0D9FF0CC0DAFFDECF0EF0DDCF0FF009
:10293000C5EF14F00EC001F00FC002F0000E046EDF
:102940000A0E036EE8EC17F00D5001240E6E000E17
:1029500002200F6E07C0D9FF08C0DAFFDE2A000E82
:10296000DD2207C0D9FF08C0DAFFDECFF6FFDDCFDA
:10297000F7FF0800F550D00F0D6E090E0D64C3EF80
:1029800014F0C5EF14F09AEF14F00EC007F00FC06A
:1029900008F01200000E0114096E000E02140A6EF7
:1029A000800E03140B6E7F0E04140C6E09500A1077
:1029B0000B100C10D8A4DFEF14F0E1EF14F0E9EFE6
:1029C00014F0000E016E000E026E000E036E000E7B
:1029D000046E000E0514096E000E06140A6E800EB9
:1029E00007140B6E7F0E08140C6E09500A100B10A2
:1029F0000C10D8A4FEEF14F000EF15F008EF15F05E
:102A0000000E056E000E066E000E076E000E086EBC
:102A1000055001180FE1065002180CE10750031889
:102A200009E108500418D8B418EF15F01AEF15F0A2
:102A30001DEF15F0D8901EEF15F0D8801200600E33
:102A4000D36E000E836E000E956E32EC16F0000E03
:102A5000806E030E926E010EC26E0E0EC16E890E56
:102A6000C06E010E056E010E5FEC17F0010E000145
:102A7000F16F080EF26F010E6BEC15F033C0F3F03E
:102A800034C0F4F035C0F5F036C0F6F0D4EC17F0F1
:102A9000010E056E020E5FEC17F0130E0001F16FD0
:102AA000080EF26F000E6BEC15F033C0F3F034C07B
:102AB000F4F035C0F5F036C0F6F0D4EC17F0410E66
:102AC0005F6EEE0EE82EFED75F2EFCD700D031EF02
:102AD00015F000EF00F0376E3750A0EC16F001C093
:102AE00006F002C007F0086A096A000EA4EC11F0B3
:102AF00006C038F007C039F008C03AF009C03BF012
:102B0000000E056E000E066EA00E076E400E086EDB
:102B100038C001F039C002F03AC003F03BC004F005
:102B200086EC0BF001C01AF002C01BF003C01CF0D1
:102B300004C01DF0000E1E6EC00E1F6E7F0E206EB4
:102B4000440E216E9BEC0DF01AC038F01BC039F01A
:102B50001CC03AF01DC03BF038C033F039C034F02F
:102B60003AC035F03BC036F01200026E02C001F0F0
:102B7000010E0116013A83500118EF0B0118836E04
:102B800002C001F0D8900132010E0116013A01464F
:102B900083500118DF0B0118836E02C001F0D8903A
:102BA0000132D8900132010E0116013A0146014668
:102BB00083500118BF0B0118836E02C001F0D8903A
:102BC0000132D8900132D8900132010E0116013243
:102BD0000132835001187F0B0118836E8382080E27
:102BE000E82EFED700F0839212001CBEFAEF15F01B
:102BF000FCEF15F002EF16F01BC020F01CC021F016
:102C000006EF16F0000E216E000E206E000E1F6EF5
:102C1000000E1E6E18EF16F0000E086E200E076EE6
:102C200017C009F018C00AF002EC14F01E4A1F2A5F
:102C300020501E5C1F50800A1D6E2150800A1D58B6
:102C4000D8A025EF16F027EF16F00CEF16F019C0FC
:102C500010F01AC011F017C012F018C013F03DECBC
:102C600017F012008398839A839C839E070E066E4A
:102C70007D0EE82EFED7062EFCD700F0030EB5EC35
:102C800015F0070E066E7D0EE82EFED7062EFCD739
:102C900000F0030EB5EC15F0070E066E7D0EE82E63
:102CA000FED7062EFCD700F0020EB5EC15F0C80ECC
:102CB00000D0E82EFDD7280E036E000EBCEC17F0F6
:102CC0000C0E036E000EBCEC17F0FBEC17F0060EBA
:102CD000036E000EBCEC17F0120004BE7CEF16F081
:102CE00004500310021006E10104D8B07AEF16F088
:102CF0007CEF16F097EF16F001C005F002C006F069
:102D000003C007F004C008F0051E061E071E081EBB
:102D1000052A000E06220722082205C001F006C07F
:102D200002F007C003F008C004F09FEF16F001C0E6
:102D300001F002C002F003C003F004C004F012006E
:102D4000056E0550D8A4A7EF16F0A9EF16F0ADEF69
:102D500016F0C30EC216B9EF16F00504D8A4B3EFEF
:102D600016F0B5EF16F0B9EF16F0C250C30B040918
:102D7000C26EC282C2A2BFEF16F0C1EF16F0BAEF68
:102D800016F0C3CF03F0C4CF04F003C001F004C0B9
:102D900002F01200EBC0EFF0ECC0F0F0DEEF16F046
:102DA000E9C050F0EAC051F0EF0E526E000E536EC3
:102DB000EDC054F0EEC055F068EC0FF0EFC0F6FF38
:102DC000F0C0F7FF0800F5500009D8A4EAEF16F0AC
:102DD000ECEF16F0D0EF16F0000E0001EA6F000ED7
:102DE000E96F120003C009F004C00AF001C007F047
:102DF00002C008F00CEF17F009C0D9FF0AC0DAFFD3
:102E0000DF500B6E094A0A2A07C0D9FF08C0DAFF53
:102E10000BC0DFFF074A082A0506D8A006060528CA
:102E200006E10628D8A417EF17F019EF17F0FCEF0A
:102E300016F01200000E1E1A000E1F1A000E201AA5
:102E4000800E211A1AC001F01BC002F01CC003F052
:102E50001DC004F01EC005F01FC006F020C007F022
:102E600021C008F026EC09F001C01AF002C01BF0E6
:102E700003C01CF004C01DF01200000E166E000E00
:102E8000156E4EEF17F014C007F0086A12C009F073
:102E900013C00AF002EC14F0154A162A155010243B
:102EA000D96E16501120DA6EDF50146E1450D8A46B
:102EB0005CEF17F05EEF17F043EF17F01200066EAD
:102EC000000E076E0604D8A468EF17F06AEF17F03B
:102ED0006CEF17F0800E076E020E0618D8A473EF81
:102EE00017F075EF17F077EF17F0C00E076E075069
:102EF0000524076E07C003F0000EBCEC17F01200AB
:102F000003C005F004C006F001C007F002C008F0DD
:102F100005C0F6FF06C0F7FF054A062A07C0D9FF1D
:102F200008C0DAFF074A082A0800F5CFDFFFDF50A4
:102F3000D8A49DEF17F09FEF17F088EF17F012005D
:102F40000150021003100410D8B4A9EF17F0ABEF32
:102F500017F0B3EF17F0000E011A000E021A000E60
:102F6000031A800E041A01C001F002C002F003C06F
:102F700003F004C004F01200046E04B002D0839089
:102F800001D08380210EE82EFED700F08392033813
:102F90000F0BB5EC15F003500F0BB5EC15F00D0E43
:102FA000E82EFED700F01200F30E0001F76F000EBE
:102FB000F86F000EE96F000EEA6FF1C0EBF0F2C09F
:102FC000ECF0F70EED6F000EEE6FCAEC16F012008B
:102FD00001500302F3CF05F0F4CF06F001500402D4
:102FE000F350062602500302F350062605C001F0F6
:102FF00006C002F01200010E036E000EBCEC17F0CA
:10300000030E056E980EE82EFED7052EFCD7120093
:1030100000EE60F05D0EEE6AE806FDE1000EF86E6F
:1030200000011FEF15F0056E05C003F0010EBCECAA
:0E30300017F01200066E065013EC18F0120096
:020000040020DA
:08000000FFFFFFFFFFFFFFFF00
:020000040030CA
:0E000000000B1F1EFF8181FF0FC00FE00F409D
:00000001FF
